{
  "_format": "hh-sol-artifact-1",
  "contractName": "CustomToken",
  "sourceName": "contracts/CustomToken.sol",
  "abi": [
    {
      "inputs": [
        {
          "internalType": "string",
          "name": "name_",
          "type": "string"
        },
        {
          "internalType": "string",
          "name": "symbol_",
          "type": "string"
        },
        {
          "internalType": "uint256",
          "name": "totalSupply_",
          "type": "uint256"
        }
      ],
      "stateMutability": "nonpayable",
      "type": "constructor"
    },
    {
      "inputs": [
        {
          "internalType": "address",
          "name": "account",
          "type": "address"
        }
      ],
      "name": "balanceOf",
      "outputs": [
        {
          "internalType": "uint256",
          "name": "",
          "type": "uint256"
        }
      ],
      "stateMutability": "view",
      "type": "function"
    },
    {
      "inputs": [],
      "name": "name",
      "outputs": [
        {
          "internalType": "string",
          "name": "",
          "type": "string"
        }
      ],
      "stateMutability": "view",
      "type": "function"
    },
    {
      "inputs": [],
      "name": "symbol",
      "outputs": [
        {
          "internalType": "string",
          "name": "",
          "type": "string"
        }
      ],
      "stateMutability": "view",
      "type": "function"
    },
    {
      "inputs": [],
      "name": "totalSupply",
      "outputs": [
        {
          "internalType": "uint256",
          "name": "",
          "type": "uint256"
        }
      ],
      "stateMutability": "view",
      "type": "function"
    },
    {
      "inputs": [
        {
          "internalType": "address",
          "name": "recipient",
          "type": "address"
        },
        {
          "internalType": "uint256",
          "name": "amount",
          "type": "uint256"
        }
      ],
      "name": "transfer",
      "outputs": [
        {
          "internalType": "bool",
          "name": "",
          "type": "bool"
        }
      ],
      "stateMutability": "nonpayable",
      "type": "function"
    }
  ],
  "bytecode": "0x60806040523480156200001157600080fd5b5060405162000bf838038062000bf8833981810160405281019062000037919062000202565b82600090805190602001906200004f929190620000bd565b50816001908051906020019062000068929190620000bd565b508060028190555080600360003373ffffffffffffffffffffffffffffffffffffffff1673ffffffffffffffffffffffffffffffffffffffff1681526020019081526020016000208190555050505062000444565b828054620000cb906200033b565b90600052602060002090601f016020900481019282620000ef57600085556200013b565b82601f106200010a57805160ff19168380011785556200013b565b828001600101855582156200013b579182015b828111156200013a5782518255916020019190600101906200011d565b5b5090506200014a91906200014e565b5090565b5b80821115620001695760008160009055506001016200014f565b5090565b6000620001846200017e84620002c5565b6200029c565b905082815260208101848484011115620001a357620001a26200040a565b5b620001b084828562000305565b509392505050565b600082601f830112620001d057620001cf62000405565b5b8151620001e28482602086016200016d565b91505092915050565b600081519050620001fc816200042a565b92915050565b6000806000606084860312156200021e576200021d62000414565b5b600084015167ffffffffffffffff8111156200023f576200023e6200040f565b5b6200024d86828701620001b8565b935050602084015167ffffffffffffffff8111156200027157620002706200040f565b5b6200027f86828701620001b8565b92505060406200029286828701620001eb565b9150509250925092565b6000620002a8620002bb565b9050620002b6828262000371565b919050565b6000604051905090565b600067ffffffffffffffff821115620002e357620002e2620003d6565b5b620002ee8262000419565b9050602081019050919050565b6000819050919050565b60005b838110156200032557808201518184015260208101905062000308565b8381111562000335576000848401525b50505050565b600060028204905060018216806200035457607f821691505b602082108114156200036b576200036a620003a7565b5b50919050565b6200037c8262000419565b810181811067ffffffffffffffff821117156200039e576200039d620003d6565b5b80604052505050565b7f4e487b7100000000000000000000000000000000000000000000000000000000600052602260045260246000fd5b7f4e487b7100000000000000000000000000000000000000000000000000000000600052604160045260246000fd5b600080fd5b600080fd5b600080fd5b600080fd5b6000601f19601f8301169050919050565b6200043581620002fb565b81146200044157600080fd5b50565b6107a480620004546000396000f3fe608060405234801561001057600080fd5b50600436106100575760003560e01c806306fdde031461005c57806318160ddd1461007a57806370a082311461009857806395d89b41146100c8578063a9059cbb146100e6575b600080fd5b610064610116565b60405161007191906104f3565b60405180910390f35b6100826101a8565b60405161008f9190610535565b60405180910390f35b6100b260048036038101906100ad91906103f1565b6101b2565b6040516100bf9190610535565b60405180910390f35b6100d06101fb565b6040516100dd91906104f3565b60405180910390f35b61010060048036038101906100fb919061041e565b61028d565b60405161010d91906104d8565b60405180910390f35b60606000805461012590610671565b80601f016020809104026020016040519081016040528092919081815260200182805461015190610671565b801561019e5780601f106101735761010080835404028352916020019161019e565b820191906000526020600020905b81548152906001019060200180831161018157829003601f168201915b5050505050905090565b6000600254905090565b6000600360008373ffffffffffffffffffffffffffffffffffffffff1673ffffffffffffffffffffffffffffffffffffffff168152602001908152602001600020549050919050565b60606001805461020a90610671565b80601f016020809104026020016040519081016040528092919081815260200182805461023690610671565b80156102835780601f1061025857610100808354040283529160200191610283565b820191906000526020600020905b81548152906001019060200180831161026657829003601f168201915b5050505050905090565b600081600360003373ffffffffffffffffffffffffffffffffffffffff1673ffffffffffffffffffffffffffffffffffffffff168152602001908152602001600020541015610311576040517f08c379a000000000000000000000000000000000000000000000000000000000815260040161030890610515565b60405180910390fd5b81600360003373ffffffffffffffffffffffffffffffffffffffff1673ffffffffffffffffffffffffffffffffffffffff168152602001908152602001600020600082825461036091906105c2565b9250508190555081600360008573ffffffffffffffffffffffffffffffffffffffff1673ffffffffffffffffffffffffffffffffffffffff16815260200190815260200160002060008282546103b6919061056c565b925050819055506001905092915050565b6000813590506103d681610740565b92915050565b6000813590506103eb81610757565b92915050565b60006020828403121561040757610406610701565b5b6000610415848285016103c7565b91505092915050565b6000806040838503121561043557610434610701565b5b6000610443858286016103c7565b9250506020610454858286016103dc565b9150509250929050565b61046781610608565b82525050565b600061047882610550565b610482818561055b565b935061049281856020860161063e565b61049b81610706565b840191505092915050565b60006104b360148361055b565b91506104be82610717565b602082019050919050565b6104d281610634565b82525050565b60006020820190506104ed600083018461045e565b92915050565b6000602082019050818103600083015261050d818461046d565b905092915050565b6000602082019050818103600083015261052e816104a6565b9050919050565b600060208201905061054a60008301846104c9565b92915050565b600081519050919050565b600082825260208201905092915050565b600061057782610634565b915061058283610634565b9250827fffffffffffffffffffffffffffffffffffffffffffffffffffffffffffffffff038211156105b7576105b66106a3565b5b828201905092915050565b60006105cd82610634565b91506105d883610634565b9250828210156105eb576105ea6106a3565b5b828203905092915050565b600061060182610614565b9050919050565b60008115159050919050565b600073ffffffffffffffffffffffffffffffffffffffff82169050919050565b6000819050919050565b60005b8381101561065c578082015181840152602081019050610641565b8381111561066b576000848401525b50505050565b6000600282049050600182168061068957607f821691505b6020821081141561069d5761069c6106d2565b5b50919050565b7f4e487b7100000000000000000000000000000000000000000000000000000000600052601160045260246000fd5b7f4e487b7100000000000000000000000000000000000000000000000000000000600052602260045260246000fd5b600080fd5b6000601f19601f8301169050919050565b7f496e73756666696369656e742062616c616e6365000000000000000000000000600082015250565b610749816105f6565b811461075457600080fd5b50565b61076081610634565b811461076b57600080fd5b5056fea2646970667358221220cbac2d40683b98a1a3f0901ec1e312995b5245e82a10f5b5149f3f621fb0005264736f6c63430008070033",
  "linkReferences": {},
  "deployedLinkReferences": {}
}