{
  "_format": "hh-sol-artifact-1",
  "contractName": "CustomToken",
  "sourceName": "contracts/CustomToken.sol",
  "abi": [
    {
      "inputs": [
        {
          "internalType": "string",
          "name": "name_",
          "type": "string"
        },
        {
          "internalType": "string",
          "name": "symbol_",
          "type": "string"
        },
        {
          "internalType": "uint256",
          "name": "totalSupply_",
          "type": "uint256"
        }
      ],
      "stateMutability": "nonpayable",
      "type": "constructor"
    },
    {
      "inputs": [
        {
          "internalType": "address",
          "name": "account",
          "type": "address"
        }
      ],
      "name": "balanceOf",
      "outputs": [
        {
          "internalType": "uint256",
          "name": "",
          "type": "uint256"
        }
      ],
      "stateMutability": "view",
      "type": "function"
    },
    {
      "inputs": [],
      "name": "name",
      "outputs": [
        {
          "internalType": "string",
          "name": "",
          "type": "string"
        }
      ],
      "stateMutability": "view",
      "type": "function"
    },
    {
      "inputs": [],
      "name": "symbol",
      "outputs": [
        {
          "internalType": "string",
          "name": "",
          "type": "string"
        }
      ],
      "stateMutability": "view",
      "type": "function"
    },
    {
      "inputs": [],
      "name": "totalSupply",
      "outputs": [
        {
          "internalType": "uint256",
          "name": "",
          "type": "uint256"
        }
      ],
      "stateMutability": "view",
      "type": "function"
    }
  ],
  "bytecode": "0x60806040523480156200001157600080fd5b50604051620008bc380380620008bc833981810160405281019062000037919062000202565b82600090805190602001906200004f929190620000bd565b50816001908051906020019062000068929190620000bd565b508060028190555080600360003373ffffffffffffffffffffffffffffffffffffffff1673ffffffffffffffffffffffffffffffffffffffff1681526020019081526020016000208190555050505062000444565b828054620000cb906200033b565b90600052602060002090601f016020900481019282620000ef57600085556200013b565b82601f106200010a57805160ff19168380011785556200013b565b828001600101855582156200013b579182015b828111156200013a5782518255916020019190600101906200011d565b5b5090506200014a91906200014e565b5090565b5b80821115620001695760008160009055506001016200014f565b5090565b6000620001846200017e84620002c5565b6200029c565b905082815260208101848484011115620001a357620001a26200040a565b5b620001b084828562000305565b509392505050565b600082601f830112620001d057620001cf62000405565b5b8151620001e28482602086016200016d565b91505092915050565b600081519050620001fc816200042a565b92915050565b6000806000606084860312156200021e576200021d62000414565b5b600084015167ffffffffffffffff8111156200023f576200023e6200040f565b5b6200024d86828701620001b8565b935050602084015167ffffffffffffffff8111156200027157620002706200040f565b5b6200027f86828701620001b8565b92505060406200029286828701620001eb565b9150509250925092565b6000620002a8620002bb565b9050620002b6828262000371565b919050565b6000604051905090565b600067ffffffffffffffff821115620002e357620002e2620003d6565b5b620002ee8262000419565b9050602081019050919050565b6000819050919050565b60005b838110156200032557808201518184015260208101905062000308565b8381111562000335576000848401525b50505050565b600060028204905060018216806200035457607f821691505b602082108114156200036b576200036a620003a7565b5b50919050565b6200037c8262000419565b810181811067ffffffffffffffff821117156200039e576200039d620003d6565b5b80604052505050565b7f4e487b7100000000000000000000000000000000000000000000000000000000600052602260045260246000fd5b7f4e487b7100000000000000000000000000000000000000000000000000000000600052604160045260246000fd5b600080fd5b600080fd5b600080fd5b600080fd5b6000601f19601f8301169050919050565b6200043581620002fb565b81146200044157600080fd5b50565b61046880620004546000396000f3fe608060405234801561001057600080fd5b506004361061004c5760003560e01c806306fdde031461005157806318160ddd1461006f57806370a082311461008d57806395d89b41146100bd575b600080fd5b6100596100db565b60405161006691906102dc565b60405180910390f35b61007761016d565b60405161008491906102fe565b60405180910390f35b6100a760048036038101906100a29190610267565b610177565b6040516100b491906102fe565b60405180910390f35b6100c56101c0565b6040516100d291906102dc565b60405180910390f35b6060600080546100ea906103a4565b80601f0160208091040260200160405190810160405280929190818152602001828054610116906103a4565b80156101635780601f1061013857610100808354040283529160200191610163565b820191906000526020600020905b81548152906001019060200180831161014657829003601f168201915b5050505050905090565b6000600254905090565b6000600360008373ffffffffffffffffffffffffffffffffffffffff1673ffffffffffffffffffffffffffffffffffffffff168152602001908152602001600020549050919050565b6060600180546101cf906103a4565b80601f01602080910402602001604051908101604052809291908181526020018280546101fb906103a4565b80156102485780601f1061021d57610100808354040283529160200191610248565b820191906000526020600020905b81548152906001019060200180831161022b57829003601f168201915b5050505050905090565b6000813590506102618161041b565b92915050565b60006020828403121561027d5761027c610405565b5b600061028b84828501610252565b91505092915050565b600061029f82610319565b6102a98185610324565b93506102b9818560208601610371565b6102c28161040a565b840191505092915050565b6102d681610367565b82525050565b600060208201905081810360008301526102f68184610294565b905092915050565b600060208201905061031360008301846102cd565b92915050565b600081519050919050565b600082825260208201905092915050565b600061034082610347565b9050919050565b600073ffffffffffffffffffffffffffffffffffffffff82169050919050565b6000819050919050565b60005b8381101561038f578082015181840152602081019050610374565b8381111561039e576000848401525b50505050565b600060028204905060018216806103bc57607f821691505b602082108114156103d0576103cf6103d6565b5b50919050565b7f4e487b7100000000000000000000000000000000000000000000000000000000600052602260045260246000fd5b600080fd5b6000601f19601f8301169050919050565b61042481610335565b811461042f57600080fd5b5056fea2646970667358221220559ede408a5d31570c9141ee8b48d2ab579458d818d76f99cf17f746559e5bc064736f6c63430008070033",
  "linkReferences": {},
  "deployedLinkReferences": {}
}