{
  "_format": "hh-sol-artifact-1",
  "contractName": "TokenVestingVII",
  "sourceName": "contracts/TokenVestingVII.sol",
  "abi": [
    {
      "inputs": [
        {
          "internalType": "address",
          "name": "tokenContractAddress",
          "type": "address"
        }
      ],
      "stateMutability": "nonpayable",
      "type": "constructor"
    },
    {
      "inputs": [
        {
          "internalType": "enum TokenVestingVII.StakeholderCategory",
          "name": "category",
          "type": "uint8"
        },
        {
          "internalType": "uint256",
          "name": "totalTokens",
          "type": "uint256"
        },
        {
          "internalType": "uint256",
          "name": "releaseStart",
          "type": "uint256"
        },
        {
          "internalType": "uint256",
          "name": "releaseEnd",
          "type": "uint256"
        },
        {
          "internalType": "uint256",
          "name": "numberOfInstallments",
          "type": "uint256"
        }
      ],
      "name": "createVestingSchedule",
      "outputs": [],
      "stateMutability": "nonpayable",
      "type": "function"
    },
    {
      "inputs": [],
      "name": "releaseTokens",
      "outputs": [],
      "stateMutability": "nonpayable",
      "type": "function"
    },
    {
      "inputs": [
        {
          "internalType": "address",
          "name": "beneficiary",
          "type": "address"
        },
        {
          "internalType": "enum TokenVestingVII.StakeholderCategory",
          "name": "category",
          "type": "uint8"
        }
      ],
      "name": "setCategorizedAddress",
      "outputs": [],
      "stateMutability": "nonpayable",
      "type": "function"
    },
    {
      "inputs": [
        {
          "internalType": "address[]",
          "name": "addresses",
          "type": "address[]"
        }
      ],
      "name": "whitelistAddresses",
      "outputs": [],
      "stateMutability": "nonpayable",
      "type": "function"
    }
  ],
  "bytecode": "0x60806040523480156200001157600080fd5b50604051620014cb380380620014cb8339818101604052810190620000379190620000d6565b336000806101000a81548173ffffffffffffffffffffffffffffffffffffffff021916908373ffffffffffffffffffffffffffffffffffffffff16021790555080600160006101000a81548173ffffffffffffffffffffffffffffffffffffffff021916908373ffffffffffffffffffffffffffffffffffffffff160217905550506200015b565b600081519050620000d08162000141565b92915050565b600060208284031215620000ef57620000ee6200013c565b5b6000620000ff84828501620000bf565b91505092915050565b600062000115826200011c565b9050919050565b600073ffffffffffffffffffffffffffffffffffffffff82169050919050565b600080fd5b6200014c8162000108565b81146200015857600080fd5b50565b611360806200016b6000396000f3fe608060405234801561001057600080fd5b506004361061004c5760003560e01c80632bf0430414610051578063a1818dbf1461006d578063a96f866814610089578063d743a3e014610093575b600080fd5b61006b60048036038101906100669190610a5d565b6100af565b005b61008760048036038101906100829190610ad7565b6101e2565b005b6100916103d3565b005b6100ad60048036038101906100a89190610a1d565b610709565b005b60008054906101000a900473ffffffffffffffffffffffffffffffffffffffff1673ffffffffffffffffffffffffffffffffffffffff163373ffffffffffffffffffffffffffffffffffffffff161461013d576040517f08c379a000000000000000000000000000000000000000000000000000000000815260040161013490610db4565b60405180910390fd5b60005b828290508110156101dd5760016002600085858581811061016457610163611038565b5b905060200201602081019061017991906109f0565b73ffffffffffffffffffffffffffffffffffffffff1673ffffffffffffffffffffffffffffffffffffffff16815260200190815260200160002060006101000a81548160ff02191690831515021790555080806101d590610f62565b915050610140565b505050565b60008054906101000a900473ffffffffffffffffffffffffffffffffffffffff1673ffffffffffffffffffffffffffffffffffffffff163373ffffffffffffffffffffffffffffffffffffffff1614610270576040517f08c379a000000000000000000000000000000000000000000000000000000000815260040161026790610db4565b60405180910390fd5b600084116102b3576040517f08c379a00000000000000000000000000000000000000000000000000000000081526004016102aa90610dd4565b60405180910390fd5b8183106102f5576040517f08c379a00000000000000000000000000000000000000000000000000000000081526004016102ec90610d14565b60405180910390fd5b60008111610338576040517f08c379a000000000000000000000000000000000000000000000000000000000815260040161032f90610d54565b60405180910390fd5b6040518060a0016040528085815260200184815260200183815260200160008152602001828152506004600087600281111561037757610376611009565b5b600281111561038957610388611009565b5b815260200190815260200160002060008201518160000155602082015181600101556040820151816002015560608201518160030155608082015181600401559050505050505050565b600260003373ffffffffffffffffffffffffffffffffffffffff1673ffffffffffffffffffffffffffffffffffffffff16815260200190815260200160002060009054906101000a900460ff1661045f576040517f08c379a000000000000000000000000000000000000000000000000000000000815260040161045690610d34565b60405180910390fd5b6000600360003373ffffffffffffffffffffffffffffffffffffffff1673ffffffffffffffffffffffffffffffffffffffff16815260200190815260200160002060009054906101000a900460ff169050600060028111156104c4576104c3611009565b5b60028111156104d6576104d5611009565b5b8160028111156104e9576104e8611009565b5b141561052a576040517f08c379a000000000000000000000000000000000000000000000000000000000815260040161052190610cf4565b60405180910390fd5b60006004600083600281111561054357610542611009565b5b600281111561055557610554611009565b5b8152602001908152602001600020905060008160000154116105ac576040517f08c379a00000000000000000000000000000000000000000000000000000000081526004016105a390610d74565b60405180910390fd5b60006105f4826040518060a001604052908160008201548152602001600182015481526020016002820154815260200160038201548152602001600482015481525050610872565b905060008111610639576040517f08c379a000000000000000000000000000000000000000000000000000000000815260040161063090610d94565b60405180910390fd5b8082600301600082825461064d9190610e05565b92505081905550600160009054906101000a900473ffffffffffffffffffffffffffffffffffffffff1673ffffffffffffffffffffffffffffffffffffffff1663a9059cbb33836040518363ffffffff1660e01b81526004016106b1929190610cab565b602060405180830381600087803b1580156106cb57600080fd5b505af11580156106df573d6000803e3d6000fd5b505050506040513d601f19601f820116820180604052508101906107039190610aaa565b50505050565b60008054906101000a900473ffffffffffffffffffffffffffffffffffffffff1673ffffffffffffffffffffffffffffffffffffffff163373ffffffffffffffffffffffffffffffffffffffff1614610797576040517f08c379a000000000000000000000000000000000000000000000000000000000815260040161078e90610db4565b60405180910390fd5b600073ffffffffffffffffffffffffffffffffffffffff168273ffffffffffffffffffffffffffffffffffffffff161415610807576040517f08c379a00000000000000000000000000000000000000000000000000000000081526004016107fe90610cd4565b60405180910390fd5b80600360008473ffffffffffffffffffffffffffffffffffffffff1673ffffffffffffffffffffffffffffffffffffffff16815260200190815260200160002060006101000a81548160ff0219169083600281111561086957610868611009565b5b02179055505050565b600080429050826020015181101561088e576000915050610941565b826040015181106108b557826060015183600001516108ad9190610ee6565b915050610941565b60008360200151826108c79190610ee6565b90506000846020015185604001516108df9190610ee6565b90506000856080015186600001516108f79190610e5b565b905060008287608001518561090c9190610e8c565b6109169190610e5b565b905060008760600151838361092b9190610e8c565b6109359190610ee6565b90508096505050505050505b919050565b600081359050610955816112d5565b92915050565b60008083601f8401126109715761097061106c565b5b8235905067ffffffffffffffff81111561098e5761098d611067565b5b6020830191508360208202830111156109aa576109a9611071565b5b9250929050565b6000815190506109c0816112ec565b92915050565b6000813590506109d581611303565b92915050565b6000813590506109ea81611313565b92915050565b600060208284031215610a0657610a0561107b565b5b6000610a1484828501610946565b91505092915050565b60008060408385031215610a3457610a3361107b565b5b6000610a4285828601610946565b9250506020610a53858286016109c6565b9150509250929050565b60008060208385031215610a7457610a7361107b565b5b600083013567ffffffffffffffff811115610a9257610a91611076565b5b610a9e8582860161095b565b92509250509250929050565b600060208284031215610ac057610abf61107b565b5b6000610ace848285016109b1565b91505092915050565b600080600080600060a08688031215610af357610af261107b565b5b6000610b01888289016109c6565b9550506020610b12888289016109db565b9450506040610b23888289016109db565b9350506060610b34888289016109db565b9250506080610b45888289016109db565b9150509295509295909350565b610b5b81610f1a565b82525050565b6000610b6e601b83610df4565b9150610b7982611080565b602082019050919050565b6000610b91602d83610df4565b9150610b9c826110a9565b604082019050919050565b6000610bb4602483610df4565b9150610bbf826110f8565b604082019050919050565b6000610bd7603783610df4565b9150610be282611147565b604082019050919050565b6000610bfa603083610df4565b9150610c0582611196565b604082019050919050565b6000610c1d602983610df4565b9150610c28826111e5565b604082019050919050565b6000610c40601f83610df4565b9150610c4b82611234565b602082019050919050565b6000610c63602b83610df4565b9150610c6e8261125d565b604082019050919050565b6000610c86602083610df4565b9150610c91826112ac565b602082019050919050565b610ca581610f58565b82525050565b6000604082019050610cc06000830185610b52565b610ccd6020830184610c9c565b9392505050565b60006020820190508181036000830152610ced81610b61565b9050919050565b60006020820190508181036000830152610d0d81610b84565b9050919050565b60006020820190508181036000830152610d2d81610ba7565b9050919050565b60006020820190508181036000830152610d4d81610bca565b9050919050565b60006020820190508181036000830152610d6d81610bed565b9050919050565b60006020820190508181036000830152610d8d81610c10565b9050919050565b60006020820190508181036000830152610dad81610c33565b9050919050565b60006020820190508181036000830152610dcd81610c56565b9050919050565b60006020820190508181036000830152610ded81610c79565b9050919050565b600082825260208201905092915050565b6000610e1082610f58565b9150610e1b83610f58565b9250827fffffffffffffffffffffffffffffffffffffffffffffffffffffffffffffffff03821115610e5057610e4f610fab565b5b828201905092915050565b6000610e6682610f58565b9150610e7183610f58565b925082610e8157610e80610fda565b5b828204905092915050565b6000610e9782610f58565b9150610ea283610f58565b9250817fffffffffffffffffffffffffffffffffffffffffffffffffffffffffffffffff0483118215151615610edb57610eda610fab565b5b828202905092915050565b6000610ef182610f58565b9150610efc83610f58565b925082821015610f0f57610f0e610fab565b5b828203905092915050565b6000610f2582610f38565b9050919050565b60008115159050919050565b600073ffffffffffffffffffffffffffffffffffffffff82169050919050565b6000819050919050565b6000610f6d82610f58565b91507fffffffffffffffffffffffffffffffffffffffffffffffffffffffffffffffff821415610fa057610f9f610fab565b5b600182019050919050565b7f4e487b7100000000000000000000000000000000000000000000000000000000600052601160045260246000fd5b7f4e487b7100000000000000000000000000000000000000000000000000000000600052601260045260246000fd5b7f4e487b7100000000000000000000000000000000000000000000000000000000600052602160045260246000fd5b7f4e487b7100000000000000000000000000000000000000000000000000000000600052603260045260246000fd5b600080fd5b600080fd5b600080fd5b600080fd5b600080fd5b7f496e76616c69642062656e656669636961727920616464726573730000000000600082015250565b7f4e6f207374616b65686f6c6465722063617465676f727920666f756e6420666f60008201527f7220746869732063616c6c657200000000000000000000000000000000000000602082015250565b7f52656c6561736520706572696f64206d75737420626520696e2074686520667560008201527f7475726500000000000000000000000000000000000000000000000000000000602082015250565b7f4f6e6c792077686974656c6973746564206164647265737365732063616e207060008201527f6572666f726d2074686973207472616e73616374696f6e000000000000000000602082015250565b7f4e756d626572206f6620696e7374616c6c6d656e7473206d757374206265206760008201527f726561746572207468616e207a65726f00000000000000000000000000000000602082015250565b7f4e6f2076657374696e67207363686564756c6520666f756e6420666f7220746860008201527f69732063616c6c65720000000000000000000000000000000000000000000000602082015250565b7f4e6f20746f6b656e7320617661696c61626c6520666f722072656c6561736500600082015250565b7f4f6e6c79207468652061646d696e2063616e20706572666f726d20746869732060008201527f7472616e73616374696f6e000000000000000000000000000000000000000000602082015250565b7f546f6b656e73206d7573742062652067726561746572207468616e207a65726f600082015250565b6112de81610f1a565b81146112e957600080fd5b50565b6112f581610f2c565b811461130057600080fd5b50565b6003811061131057600080fd5b50565b61131c81610f58565b811461132757600080fd5b5056fea2646970667358221220914af0e48b9042445932472fe9966833ddf8692dfa1f79116bf818939ac1d49964736f6c63430008070033",
  "linkReferences": {},
  "deployedLinkReferences": {}
}