{
  "_format": "hh-sol-artifact-1",
  "contractName": "TokenVesting",
  "sourceName": "contracts/TokenVesting.sol",
  "abi": [
    {
      "inputs": [
        {
          "internalType": "address",
          "name": "tokenContractAddress",
          "type": "address"
        }
      ],
      "stateMutability": "nonpayable",
      "type": "constructor"
    },
    {
      "inputs": [
        {
          "internalType": "enum TokenVesting.StakeholderCategory",
          "name": "category",
          "type": "uint8"
        },
        {
          "internalType": "uint256",
          "name": "totalTokens",
          "type": "uint256"
        },
        {
          "internalType": "uint256",
          "name": "releaseStart",
          "type": "uint256"
        },
        {
          "internalType": "uint256",
          "name": "releaseEnd",
          "type": "uint256"
        }
      ],
      "name": "createVestingSchedule",
      "outputs": [],
      "stateMutability": "nonpayable",
      "type": "function"
    },
    {
      "inputs": [],
      "name": "releaseTokens",
      "outputs": [],
      "stateMutability": "nonpayable",
      "type": "function"
    },
    {
      "inputs": [
        {
          "internalType": "address",
          "name": "beneficiary",
          "type": "address"
        },
        {
          "internalType": "enum TokenVesting.StakeholderCategory",
          "name": "category",
          "type": "uint8"
        }
      ],
      "name": "setCategorizedAddress",
      "outputs": [],
      "stateMutability": "nonpayable",
      "type": "function"
    },
    {
      "inputs": [
        {
          "internalType": "address[]",
          "name": "addresses",
          "type": "address[]"
        }
      ],
      "name": "whitelistAddresses",
      "outputs": [],
      "stateMutability": "nonpayable",
      "type": "function"
    }
  ],
  "bytecode": "0x60806040523480156200001157600080fd5b5060405162001397380380620013978339818101604052810190620000379190620000d6565b336000806101000a81548173ffffffffffffffffffffffffffffffffffffffff021916908373ffffffffffffffffffffffffffffffffffffffff16021790555080600160006101000a81548173ffffffffffffffffffffffffffffffffffffffff021916908373ffffffffffffffffffffffffffffffffffffffff160217905550506200015b565b600081519050620000d08162000141565b92915050565b600060208284031215620000ef57620000ee6200013c565b5b6000620000ff84828501620000bf565b91505092915050565b600062000115826200011c565b9050919050565b600073ffffffffffffffffffffffffffffffffffffffff82169050919050565b600080fd5b6200014c8162000108565b81146200015857600080fd5b50565b61122c806200016b6000396000f3fe608060405234801561001057600080fd5b506004361061004c5760003560e01c80631d7b9c6a146100515780632bf043041461006d578063a96f866814610089578063d743a3e014610093575b600080fd5b61006b60048036038101906100669190610a49565b6100af565b005b610087600480360381019061008291906109cf565b61024c565b005b61009161037f565b005b6100ad60048036038101906100a8919061098f565b6106ab565b005b60008054906101000a900473ffffffffffffffffffffffffffffffffffffffff1673ffffffffffffffffffffffffffffffffffffffff163373ffffffffffffffffffffffffffffffffffffffff161461013d576040517f08c379a000000000000000000000000000000000000000000000000000000000815260040161013490610ccf565b60405180910390fd5b60008311610180576040517f08c379a000000000000000000000000000000000000000000000000000000000815260040161017790610cef565b60405180910390fd5b8082106101c2576040517f08c379a00000000000000000000000000000000000000000000000000000000081526004016101b990610c4f565b60405180910390fd5b60405180608001604052808481526020018381526020018281526020016000815250600460008660028111156101fb576101fa610f24565b5b600281111561020d5761020c610f24565b5b81526020019081526020016000206000820151816000015560208201518160010155604082015181600201556060820151816003015590505050505050565b60008054906101000a900473ffffffffffffffffffffffffffffffffffffffff1673ffffffffffffffffffffffffffffffffffffffff163373ffffffffffffffffffffffffffffffffffffffff16146102da576040517f08c379a00000000000000000000000000000000000000000000000000000000081526004016102d190610ccf565b60405180910390fd5b60005b8282905081101561037a5760016002600085858581811061030157610300610f53565b5b90506020020160208101906103169190610962565b73ffffffffffffffffffffffffffffffffffffffff1673ffffffffffffffffffffffffffffffffffffffff16815260200190815260200160002060006101000a81548160ff021916908315150217905550808061037290610e7d565b9150506102dd565b505050565b600260003373ffffffffffffffffffffffffffffffffffffffff1673ffffffffffffffffffffffffffffffffffffffff16815260200190815260200160002060009054906101000a900460ff1661040b576040517f08c379a000000000000000000000000000000000000000000000000000000000815260040161040290610c6f565b60405180910390fd5b6000600360003373ffffffffffffffffffffffffffffffffffffffff1673ffffffffffffffffffffffffffffffffffffffff16815260200190815260200160002060009054906101000a900460ff169050600060028111156104705761046f610f24565b5b600281111561048257610481610f24565b5b81600281111561049557610494610f24565b5b14156104d6576040517f08c379a00000000000000000000000000000000000000000000000000000000081526004016104cd90610c2f565b60405180910390fd5b6000600460008360028111156104ef576104ee610f24565b5b600281111561050157610500610f24565b5b815260200190815260200160002090506000816000015411610558576040517f08c379a000000000000000000000000000000000000000000000000000000000815260040161054f90610c8f565b60405180910390fd5b600061059682604051806080016040529081600082015481526020016001820154815260200160028201548152602001600382015481525050610814565b9050600081116105db576040517f08c379a00000000000000000000000000000000000000000000000000000000081526004016105d290610caf565b60405180910390fd5b808260030160008282546105ef9190610d20565b92505081905550600160009054906101000a900473ffffffffffffffffffffffffffffffffffffffff1673ffffffffffffffffffffffffffffffffffffffff1663a9059cbb33836040518363ffffffff1660e01b8152600401610653929190610be6565b602060405180830381600087803b15801561066d57600080fd5b505af1158015610681573d6000803e3d6000fd5b505050506040513d601f19601f820116820180604052508101906106a59190610a1c565b50505050565b60008054906101000a900473ffffffffffffffffffffffffffffffffffffffff1673ffffffffffffffffffffffffffffffffffffffff163373ffffffffffffffffffffffffffffffffffffffff1614610739576040517f08c379a000000000000000000000000000000000000000000000000000000000815260040161073090610ccf565b60405180910390fd5b600073ffffffffffffffffffffffffffffffffffffffff168273ffffffffffffffffffffffffffffffffffffffff1614156107a9576040517f08c379a00000000000000000000000000000000000000000000000000000000081526004016107a090610c0f565b60405180910390fd5b80600360008473ffffffffffffffffffffffffffffffffffffffff1673ffffffffffffffffffffffffffffffffffffffff16815260200190815260200160002060006101000a81548160ff0219169083600281111561080b5761080a610f24565b5b02179055505050565b60008042905082602001518110156108305760009150506108b3565b82604001518110610857578260600151836000015161084f9190610e01565b9150506108b3565b60008360200151826108699190610e01565b90506000846020015185604001516108819190610e01565b90508460600151818387600001516108999190610da7565b6108a39190610d76565b6108ad9190610e01565b93505050505b919050565b6000813590506108c7816111a1565b92915050565b60008083601f8401126108e3576108e2610f87565b5b8235905067ffffffffffffffff811115610900576108ff610f82565b5b60208301915083602082028301111561091c5761091b610f8c565b5b9250929050565b600081519050610932816111b8565b92915050565b600081359050610947816111cf565b92915050565b60008135905061095c816111df565b92915050565b60006020828403121561097857610977610f96565b5b6000610986848285016108b8565b91505092915050565b600080604083850312156109a6576109a5610f96565b5b60006109b4858286016108b8565b92505060206109c585828601610938565b9150509250929050565b600080602083850312156109e6576109e5610f96565b5b600083013567ffffffffffffffff811115610a0457610a03610f91565b5b610a10858286016108cd565b92509250509250929050565b600060208284031215610a3257610a31610f96565b5b6000610a4084828501610923565b91505092915050565b60008060008060808587031215610a6357610a62610f96565b5b6000610a7187828801610938565b9450506020610a828782880161094d565b9350506040610a938782880161094d565b9250506060610aa48782880161094d565b91505092959194509250565b610ab981610e35565b82525050565b6000610acc601b83610d0f565b9150610ad782610f9b565b602082019050919050565b6000610aef602d83610d0f565b9150610afa82610fc4565b604082019050919050565b6000610b12602483610d0f565b9150610b1d82611013565b604082019050919050565b6000610b35603783610d0f565b9150610b4082611062565b604082019050919050565b6000610b58602983610d0f565b9150610b63826110b1565b604082019050919050565b6000610b7b601f83610d0f565b9150610b8682611100565b602082019050919050565b6000610b9e602b83610d0f565b9150610ba982611129565b604082019050919050565b6000610bc1602083610d0f565b9150610bcc82611178565b602082019050919050565b610be081610e73565b82525050565b6000604082019050610bfb6000830185610ab0565b610c086020830184610bd7565b9392505050565b60006020820190508181036000830152610c2881610abf565b9050919050565b60006020820190508181036000830152610c4881610ae2565b9050919050565b60006020820190508181036000830152610c6881610b05565b9050919050565b60006020820190508181036000830152610c8881610b28565b9050919050565b60006020820190508181036000830152610ca881610b4b565b9050919050565b60006020820190508181036000830152610cc881610b6e565b9050919050565b60006020820190508181036000830152610ce881610b91565b9050919050565b60006020820190508181036000830152610d0881610bb4565b9050919050565b600082825260208201905092915050565b6000610d2b82610e73565b9150610d3683610e73565b9250827fffffffffffffffffffffffffffffffffffffffffffffffffffffffffffffffff03821115610d6b57610d6a610ec6565b5b828201905092915050565b6000610d8182610e73565b9150610d8c83610e73565b925082610d9c57610d9b610ef5565b5b828204905092915050565b6000610db282610e73565b9150610dbd83610e73565b9250817fffffffffffffffffffffffffffffffffffffffffffffffffffffffffffffffff0483118215151615610df657610df5610ec6565b5b828202905092915050565b6000610e0c82610e73565b9150610e1783610e73565b925082821015610e2a57610e29610ec6565b5b828203905092915050565b6000610e4082610e53565b9050919050565b60008115159050919050565b600073ffffffffffffffffffffffffffffffffffffffff82169050919050565b6000819050919050565b6000610e8882610e73565b91507fffffffffffffffffffffffffffffffffffffffffffffffffffffffffffffffff821415610ebb57610eba610ec6565b5b600182019050919050565b7f4e487b7100000000000000000000000000000000000000000000000000000000600052601160045260246000fd5b7f4e487b7100000000000000000000000000000000000000000000000000000000600052601260045260246000fd5b7f4e487b7100000000000000000000000000000000000000000000000000000000600052602160045260246000fd5b7f4e487b7100000000000000000000000000000000000000000000000000000000600052603260045260246000fd5b600080fd5b600080fd5b600080fd5b600080fd5b600080fd5b7f496e76616c69642062656e656669636961727920616464726573730000000000600082015250565b7f4e6f207374616b65686f6c6465722063617465676f727920666f756e6420666f60008201527f7220746869732063616c6c657200000000000000000000000000000000000000602082015250565b7f52656c6561736520706572696f64206d75737420626520696e2074686520667560008201527f7475726500000000000000000000000000000000000000000000000000000000602082015250565b7f4f6e6c792077686974656c6973746564206164647265737365732063616e207060008201527f6572666f726d2074686973207472616e73616374696f6e000000000000000000602082015250565b7f4e6f2076657374696e67207363686564756c6520666f756e6420666f7220746860008201527f69732063616c6c65720000000000000000000000000000000000000000000000602082015250565b7f4e6f20746f6b656e7320617661696c61626c6520666f722072656c6561736500600082015250565b7f4f6e6c79207468652061646d696e2063616e20706572666f726d20746869732060008201527f7472616e73616374696f6e000000000000000000000000000000000000000000602082015250565b7f546f6b656e73206d7573742062652067726561746572207468616e207a65726f600082015250565b6111aa81610e35565b81146111b557600080fd5b50565b6111c181610e47565b81146111cc57600080fd5b50565b600381106111dc57600080fd5b50565b6111e881610e73565b81146111f357600080fd5b5056fea2646970667358221220f5a5de5bd2fd27543e0abfc84a5e38a9beec24982a1d5ba34fc3335f564b45c664736f6c63430008070033",
  "linkReferences": {},
  "deployedLinkReferences": {}
}