{
  "_format": "hh-sol-artifact-1",
  "contractName": "TokenVesting",
  "sourceName": "contracts/TokenVesting.sol",
  "abi": [
    {
      "inputs": [
        {
          "internalType": "address",
          "name": "tokenContractAddress",
          "type": "address"
        }
      ],
      "stateMutability": "nonpayable",
      "type": "constructor"
    },
    {
      "inputs": [
        {
          "internalType": "enum TokenVesting.StakeholderCategory",
          "name": "category",
          "type": "uint8"
        },
        {
          "internalType": "uint256",
          "name": "totalTokens",
          "type": "uint256"
        },
        {
          "internalType": "uint256",
          "name": "releaseStart",
          "type": "uint256"
        },
        {
          "internalType": "uint256",
          "name": "releaseEnd",
          "type": "uint256"
        }
      ],
      "name": "createVestingSchedule",
      "outputs": [],
      "stateMutability": "nonpayable",
      "type": "function"
    },
    {
      "inputs": [],
      "name": "releaseTokens",
      "outputs": [],
      "stateMutability": "nonpayable",
      "type": "function"
    },
    {
      "inputs": [
        {
          "internalType": "address",
          "name": "beneficiary",
          "type": "address"
        },
        {
          "internalType": "enum TokenVesting.StakeholderCategory",
          "name": "category",
          "type": "uint8"
        }
      ],
      "name": "setCategorizedAddress",
      "outputs": [],
      "stateMutability": "nonpayable",
      "type": "function"
    },
    {
      "inputs": [
        {
          "internalType": "address[]",
          "name": "addresses",
          "type": "address[]"
        }
      ],
      "name": "whitelistAddresses",
      "outputs": [],
      "stateMutability": "nonpayable",
      "type": "function"
    }
  ],
  "bytecode": "0x60806040523480156200001157600080fd5b5060405162001453380380620014538339818101604052810190620000379190620000d6565b336000806101000a81548173ffffffffffffffffffffffffffffffffffffffff021916908373ffffffffffffffffffffffffffffffffffffffff16021790555080600160006101000a81548173ffffffffffffffffffffffffffffffffffffffff021916908373ffffffffffffffffffffffffffffffffffffffff160217905550506200015b565b600081519050620000d08162000141565b92915050565b600060208284031215620000ef57620000ee6200013c565b5b6000620000ff84828501620000bf565b91505092915050565b600062000115826200011c565b9050919050565b600073ffffffffffffffffffffffffffffffffffffffff82169050919050565b600080fd5b6200014c8162000108565b81146200015857600080fd5b50565b6112e8806200016b6000396000f3fe608060405234801561001057600080fd5b506004361061004c5760003560e01c80631d7b9c6a146100515780632bf043041461006d578063a96f866814610089578063d743a3e014610093575b600080fd5b61006b60048036038101906100669190610a99565b6100af565b005b61008760048036038101906100829190610a1f565b61024c565b005b61009161037f565b005b6100ad60048036038101906100a891906109df565b6106ef565b005b60008054906101000a900473ffffffffffffffffffffffffffffffffffffffff1673ffffffffffffffffffffffffffffffffffffffff163373ffffffffffffffffffffffffffffffffffffffff161461013d576040517f08c379a000000000000000000000000000000000000000000000000000000000815260040161013490610d62565b60405180910390fd5b60008311610180576040517f08c379a000000000000000000000000000000000000000000000000000000000815260040161017790610d82565b60405180910390fd5b8082106101c2576040517f08c379a00000000000000000000000000000000000000000000000000000000081526004016101b990610cc2565b60405180910390fd5b60405180608001604052808481526020018381526020018281526020016000815250600460008660028111156101fb576101fa610fb7565b5b600281111561020d5761020c610fb7565b5b81526020019081526020016000206000820151816000015560208201518160010155604082015181600201556060820151816003015590505050505050565b60008054906101000a900473ffffffffffffffffffffffffffffffffffffffff1673ffffffffffffffffffffffffffffffffffffffff163373ffffffffffffffffffffffffffffffffffffffff16146102da576040517f08c379a00000000000000000000000000000000000000000000000000000000081526004016102d190610d62565b60405180910390fd5b60005b8282905081101561037a5760016002600085858581811061030157610300610fe6565b5b905060200201602081019061031691906109b2565b73ffffffffffffffffffffffffffffffffffffffff1673ffffffffffffffffffffffffffffffffffffffff16815260200190815260200160002060006101000a81548160ff021916908315150217905550808061037290610f10565b9150506102dd565b505050565b600260003373ffffffffffffffffffffffffffffffffffffffff1673ffffffffffffffffffffffffffffffffffffffff16815260200190815260200160002060009054906101000a900460ff1661040b576040517f08c379a000000000000000000000000000000000000000000000000000000000815260040161040290610d02565b60405180910390fd5b6000600360003373ffffffffffffffffffffffffffffffffffffffff1673ffffffffffffffffffffffffffffffffffffffff16815260200190815260200160002060009054906101000a900460ff169050600060028111156104705761046f610fb7565b5b600281111561048257610481610fb7565b5b81600281111561049557610494610fb7565b5b14156104d6576040517f08c379a00000000000000000000000000000000000000000000000000000000081526004016104cd90610ca2565b60405180910390fd5b6000600460008360028111156104ef576104ee610fb7565b5b600281111561050157610500610fb7565b5b815260200190815260200160002090506000816000015411610558576040517f08c379a000000000000000000000000000000000000000000000000000000000815260040161054f90610d22565b60405180910390fd5b600061059682604051806080016040529081600082015481526020016001820154815260200160028201548152602001600382015481525050610858565b9050600081116105db576040517f08c379a00000000000000000000000000000000000000000000000000000000081526004016105d290610d42565b60405180910390fd5b808260030160008282546105ef9190610db3565b925050819055506000600160009054906101000a900473ffffffffffffffffffffffffffffffffffffffff1673ffffffffffffffffffffffffffffffffffffffff1663a9059cbb33846040518363ffffffff1660e01b8152600401610655929190610c59565b602060405180830381600087803b15801561066f57600080fd5b505af1158015610683573d6000803e3d6000fd5b505050506040513d601f19601f820116820180604052508101906106a79190610a6c565b9050806106e9576040517f08c379a00000000000000000000000000000000000000000000000000000000081526004016106e090610ce2565b60405180910390fd5b50505050565b60008054906101000a900473ffffffffffffffffffffffffffffffffffffffff1673ffffffffffffffffffffffffffffffffffffffff163373ffffffffffffffffffffffffffffffffffffffff161461077d576040517f08c379a000000000000000000000000000000000000000000000000000000000815260040161077490610d62565b60405180910390fd5b600073ffffffffffffffffffffffffffffffffffffffff168273ffffffffffffffffffffffffffffffffffffffff1614156107ed576040517f08c379a00000000000000000000000000000000000000000000000000000000081526004016107e490610c82565b60405180910390fd5b80600360008473ffffffffffffffffffffffffffffffffffffffff1673ffffffffffffffffffffffffffffffffffffffff16815260200190815260200160002060006101000a81548160ff0219169083600281111561084f5761084e610fb7565b5b02179055505050565b6000804290508260200151811015610874576000915050610903565b8260400151811061089b57826060015183600001516108939190610e94565b915050610903565b60008360200151826108ad9190610e94565b90506000846020015185604001516108c59190610e94565b905060008186600001516108d99190610e09565b90506000866060015182856108ee9190610e3a565b6108f89190610e94565b905080955050505050505b919050565b6000813590506109178161125d565b92915050565b60008083601f8401126109335761093261101a565b5b8235905067ffffffffffffffff8111156109505761094f611015565b5b60208301915083602082028301111561096c5761096b61101f565b5b9250929050565b60008151905061098281611274565b92915050565b6000813590506109978161128b565b92915050565b6000813590506109ac8161129b565b92915050565b6000602082840312156109c8576109c7611029565b5b60006109d684828501610908565b91505092915050565b600080604083850312156109f6576109f5611029565b5b6000610a0485828601610908565b9250506020610a1585828601610988565b9150509250929050565b60008060208385031215610a3657610a35611029565b5b600083013567ffffffffffffffff811115610a5457610a53611024565b5b610a608582860161091d565b92509250509250929050565b600060208284031215610a8257610a81611029565b5b6000610a9084828501610973565b91505092915050565b60008060008060808587031215610ab357610ab2611029565b5b6000610ac187828801610988565b9450506020610ad28782880161099d565b9350506040610ae38782880161099d565b9250506060610af48782880161099d565b91505092959194509250565b610b0981610ec8565b82525050565b6000610b1c601b83610da2565b9150610b278261102e565b602082019050919050565b6000610b3f602d83610da2565b9150610b4a82611057565b604082019050919050565b6000610b62602483610da2565b9150610b6d826110a6565b604082019050919050565b6000610b85601583610da2565b9150610b90826110f5565b602082019050919050565b6000610ba8603783610da2565b9150610bb38261111e565b604082019050919050565b6000610bcb602983610da2565b9150610bd68261116d565b604082019050919050565b6000610bee601f83610da2565b9150610bf9826111bc565b602082019050919050565b6000610c11602b83610da2565b9150610c1c826111e5565b604082019050919050565b6000610c34602083610da2565b9150610c3f82611234565b602082019050919050565b610c5381610f06565b82525050565b6000604082019050610c6e6000830185610b00565b610c7b6020830184610c4a565b9392505050565b60006020820190508181036000830152610c9b81610b0f565b9050919050565b60006020820190508181036000830152610cbb81610b32565b9050919050565b60006020820190508181036000830152610cdb81610b55565b9050919050565b60006020820190508181036000830152610cfb81610b78565b9050919050565b60006020820190508181036000830152610d1b81610b9b565b9050919050565b60006020820190508181036000830152610d3b81610bbe565b9050919050565b60006020820190508181036000830152610d5b81610be1565b9050919050565b60006020820190508181036000830152610d7b81610c04565b9050919050565b60006020820190508181036000830152610d9b81610c27565b9050919050565b600082825260208201905092915050565b6000610dbe82610f06565b9150610dc983610f06565b9250827fffffffffffffffffffffffffffffffffffffffffffffffffffffffffffffffff03821115610dfe57610dfd610f59565b5b828201905092915050565b6000610e1482610f06565b9150610e1f83610f06565b925082610e2f57610e2e610f88565b5b828204905092915050565b6000610e4582610f06565b9150610e5083610f06565b9250817fffffffffffffffffffffffffffffffffffffffffffffffffffffffffffffffff0483118215151615610e8957610e88610f59565b5b828202905092915050565b6000610e9f82610f06565b9150610eaa83610f06565b925082821015610ebd57610ebc610f59565b5b828203905092915050565b6000610ed382610ee6565b9050919050565b60008115159050919050565b600073ffffffffffffffffffffffffffffffffffffffff82169050919050565b6000819050919050565b6000610f1b82610f06565b91507fffffffffffffffffffffffffffffffffffffffffffffffffffffffffffffffff821415610f4e57610f4d610f59565b5b600182019050919050565b7f4e487b7100000000000000000000000000000000000000000000000000000000600052601160045260246000fd5b7f4e487b7100000000000000000000000000000000000000000000000000000000600052601260045260246000fd5b7f4e487b7100000000000000000000000000000000000000000000000000000000600052602160045260246000fd5b7f4e487b7100000000000000000000000000000000000000000000000000000000600052603260045260246000fd5b600080fd5b600080fd5b600080fd5b600080fd5b600080fd5b7f496e76616c69642062656e656669636961727920616464726573730000000000600082015250565b7f4e6f207374616b65686f6c6465722063617465676f727920666f756e6420666f60008201527f7220746869732063616c6c657200000000000000000000000000000000000000602082015250565b7f52656c6561736520706572696f64206d75737420626520696e2074686520667560008201527f7475726500000000000000000000000000000000000000000000000000000000602082015250565b7f546f6b656e207472616e73666572206661696c65640000000000000000000000600082015250565b7f4f6e6c792077686974656c6973746564206164647265737365732063616e207060008201527f6572666f726d2074686973207472616e73616374696f6e000000000000000000602082015250565b7f4e6f2076657374696e67207363686564756c6520666f756e6420666f7220746860008201527f69732063616c6c65720000000000000000000000000000000000000000000000602082015250565b7f4e6f20746f6b656e7320617661696c61626c6520666f722072656c6561736500600082015250565b7f4f6e6c79207468652061646d696e2063616e20706572666f726d20746869732060008201527f7472616e73616374696f6e000000000000000000000000000000000000000000602082015250565b7f546f6b656e73206d7573742062652067726561746572207468616e207a65726f600082015250565b61126681610ec8565b811461127157600080fd5b50565b61127d81610eda565b811461128857600080fd5b50565b6003811061129857600080fd5b50565b6112a481610f06565b81146112af57600080fd5b5056fea2646970667358221220a3f2397c318fcdfc5fc549a60b3798208479ef4930f72aa136d0812590cea7cf64736f6c63430008070033",
  "linkReferences": {},
  "deployedLinkReferences": {}
}