{
  "_format": "hh-sol-artifact-1",
  "contractName": "TokenVestingVII",
  "sourceName": "contracts/TokenVestingVII.sol",
  "abi": [
    {
      "inputs": [
        {
          "internalType": "address",
          "name": "tokenContractAddress",
          "type": "address"
        }
      ],
      "stateMutability": "nonpayable",
      "type": "constructor"
    },
    {
      "inputs": [
        {
          "internalType": "enum TokenVestingVII.StakeholderCategory",
          "name": "category",
          "type": "uint8"
        },
        {
          "internalType": "uint256",
          "name": "totalTokens",
          "type": "uint256"
        },
        {
          "internalType": "uint256",
          "name": "releaseStart",
          "type": "uint256"
        },
        {
          "internalType": "uint256",
          "name": "releaseEnd",
          "type": "uint256"
        },
        {
          "internalType": "uint256",
          "name": "numberOfInstallments",
          "type": "uint256"
        }
      ],
      "name": "createVestingSchedule",
      "outputs": [],
      "stateMutability": "nonpayable",
      "type": "function"
    },
    {
      "inputs": [],
      "name": "releaseTokens",
      "outputs": [],
      "stateMutability": "nonpayable",
      "type": "function"
    },
    {
      "inputs": [
        {
          "internalType": "address",
          "name": "beneficiary",
          "type": "address"
        },
        {
          "internalType": "enum TokenVestingVII.StakeholderCategory",
          "name": "category",
          "type": "uint8"
        }
      ],
      "name": "setCategorizedAddress",
      "outputs": [],
      "stateMutability": "nonpayable",
      "type": "function"
    },
    {
      "inputs": [
        {
          "internalType": "address[]",
          "name": "addresses",
          "type": "address[]"
        }
      ],
      "name": "whitelistAddresses",
      "outputs": [],
      "stateMutability": "nonpayable",
      "type": "function"
    }
  ],
  "bytecode": "0x60806040523480156200001157600080fd5b5060405162001578380380620015788339818101604052810190620000379190620000d6565b336000806101000a81548173ffffffffffffffffffffffffffffffffffffffff021916908373ffffffffffffffffffffffffffffffffffffffff16021790555080600160006101000a81548173ffffffffffffffffffffffffffffffffffffffff021916908373ffffffffffffffffffffffffffffffffffffffff160217905550506200015b565b600081519050620000d08162000141565b92915050565b600060208284031215620000ef57620000ee6200013c565b5b6000620000ff84828501620000bf565b91505092915050565b600062000115826200011c565b9050919050565b600073ffffffffffffffffffffffffffffffffffffffff82169050919050565b600080fd5b6200014c8162000108565b81146200015857600080fd5b50565b61140d806200016b6000396000f3fe608060405234801561001057600080fd5b506004361061004c5760003560e01c80632bf0430414610051578063a1818dbf1461006d578063a96f866814610089578063d743a3e014610093575b600080fd5b61006b60048036038101906100669190610a9e565b6100af565b005b61008760048036038101906100829190610b18565b6101e2565b005b6100916103d3565b005b6100ad60048036038101906100a89190610a5e565b61074d565b005b60008054906101000a900473ffffffffffffffffffffffffffffffffffffffff1673ffffffffffffffffffffffffffffffffffffffff163373ffffffffffffffffffffffffffffffffffffffff161461013d576040517f08c379a000000000000000000000000000000000000000000000000000000000815260040161013490610e38565b60405180910390fd5b60005b828290508110156101dd57600160026000858585818110610164576101636110bc565b5b90506020020160208101906101799190610a31565b73ffffffffffffffffffffffffffffffffffffffff1673ffffffffffffffffffffffffffffffffffffffff16815260200190815260200160002060006101000a81548160ff02191690831515021790555080806101d590610fe6565b915050610140565b505050565b60008054906101000a900473ffffffffffffffffffffffffffffffffffffffff1673ffffffffffffffffffffffffffffffffffffffff163373ffffffffffffffffffffffffffffffffffffffff1614610270576040517f08c379a000000000000000000000000000000000000000000000000000000000815260040161026790610e38565b60405180910390fd5b600084116102b3576040517f08c379a00000000000000000000000000000000000000000000000000000000081526004016102aa90610e58565b60405180910390fd5b8183106102f5576040517f08c379a00000000000000000000000000000000000000000000000000000000081526004016102ec90610d78565b60405180910390fd5b60008111610338576040517f08c379a000000000000000000000000000000000000000000000000000000000815260040161032f90610dd8565b60405180910390fd5b6040518060a001604052808581526020018481526020018381526020016000815260200182815250600460008760028111156103775761037661108d565b5b60028111156103895761038861108d565b5b815260200190815260200160002060008201518160000155602082015181600101556040820151816002015560608201518160030155608082015181600401559050505050505050565b600260003373ffffffffffffffffffffffffffffffffffffffff1673ffffffffffffffffffffffffffffffffffffffff16815260200190815260200160002060009054906101000a900460ff1661045f576040517f08c379a000000000000000000000000000000000000000000000000000000000815260040161045690610db8565b60405180910390fd5b6000600360003373ffffffffffffffffffffffffffffffffffffffff1673ffffffffffffffffffffffffffffffffffffffff16815260200190815260200160002060009054906101000a900460ff169050600060028111156104c4576104c361108d565b5b60028111156104d6576104d561108d565b5b8160028111156104e9576104e861108d565b5b141561052a576040517f08c379a000000000000000000000000000000000000000000000000000000000815260040161052190610d58565b60405180910390fd5b6000600460008360028111156105435761054261108d565b5b60028111156105555761055461108d565b5b8152602001908152602001600020905060008160000154116105ac576040517f08c379a00000000000000000000000000000000000000000000000000000000081526004016105a390610df8565b60405180910390fd5b60006105f4826040518060a0016040529081600082015481526020016001820154815260200160028201548152602001600382015481526020016004820154815250506108b6565b905060008111610639576040517f08c379a000000000000000000000000000000000000000000000000000000000815260040161063090610e18565b60405180910390fd5b8082600301600082825461064d9190610e89565b925050819055506000600160009054906101000a900473ffffffffffffffffffffffffffffffffffffffff1673ffffffffffffffffffffffffffffffffffffffff1663a9059cbb33846040518363ffffffff1660e01b81526004016106b3929190610d0f565b602060405180830381600087803b1580156106cd57600080fd5b505af11580156106e1573d6000803e3d6000fd5b505050506040513d601f19601f820116820180604052508101906107059190610aeb565b905080610747576040517f08c379a000000000000000000000000000000000000000000000000000000000815260040161073e90610d98565b60405180910390fd5b50505050565b60008054906101000a900473ffffffffffffffffffffffffffffffffffffffff1673ffffffffffffffffffffffffffffffffffffffff163373ffffffffffffffffffffffffffffffffffffffff16146107db576040517f08c379a00000000000000000000000000000000000000000000000000000000081526004016107d290610e38565b60405180910390fd5b600073ffffffffffffffffffffffffffffffffffffffff168273ffffffffffffffffffffffffffffffffffffffff16141561084b576040517f08c379a000000000000000000000000000000000000000000000000000000000815260040161084290610d38565b60405180910390fd5b80600360008473ffffffffffffffffffffffffffffffffffffffff1673ffffffffffffffffffffffffffffffffffffffff16815260200190815260200160002060006101000a81548160ff021916908360028111156108ad576108ac61108d565b5b02179055505050565b60008042905082602001518110156108d2576000915050610982565b826040015181106108f957826060015183600001516108f19190610f6a565b915050610982565b600083602001518261090b9190610f6a565b90506000846020015185604001516109239190610f6a565b90506000856000015182846109389190610edf565b6109429190610f10565b90508560800151816109549190610edf565b90508560800151816109669190610f10565b90508560600151816109789190610f6a565b9050809450505050505b919050565b60008135905061099681611382565b92915050565b60008083601f8401126109b2576109b16110f0565b5b8235905067ffffffffffffffff8111156109cf576109ce6110eb565b5b6020830191508360208202830111156109eb576109ea6110f5565b5b9250929050565b600081519050610a0181611399565b92915050565b600081359050610a16816113b0565b92915050565b600081359050610a2b816113c0565b92915050565b600060208284031215610a4757610a466110ff565b5b6000610a5584828501610987565b91505092915050565b60008060408385031215610a7557610a746110ff565b5b6000610a8385828601610987565b9250506020610a9485828601610a07565b9150509250929050565b60008060208385031215610ab557610ab46110ff565b5b600083013567ffffffffffffffff811115610ad357610ad26110fa565b5b610adf8582860161099c565b92509250509250929050565b600060208284031215610b0157610b006110ff565b5b6000610b0f848285016109f2565b91505092915050565b600080600080600060a08688031215610b3457610b336110ff565b5b6000610b4288828901610a07565b9550506020610b5388828901610a1c565b9450506040610b6488828901610a1c565b9350506060610b7588828901610a1c565b9250506080610b8688828901610a1c565b9150509295509295909350565b610b9c81610f9e565b82525050565b6000610baf601b83610e78565b9150610bba82611104565b602082019050919050565b6000610bd2602d83610e78565b9150610bdd8261112d565b604082019050919050565b6000610bf5602483610e78565b9150610c008261117c565b604082019050919050565b6000610c18601583610e78565b9150610c23826111cb565b602082019050919050565b6000610c3b603783610e78565b9150610c46826111f4565b604082019050919050565b6000610c5e603083610e78565b9150610c6982611243565b604082019050919050565b6000610c81602983610e78565b9150610c8c82611292565b604082019050919050565b6000610ca4601f83610e78565b9150610caf826112e1565b602082019050919050565b6000610cc7602b83610e78565b9150610cd28261130a565b604082019050919050565b6000610cea602083610e78565b9150610cf582611359565b602082019050919050565b610d0981610fdc565b82525050565b6000604082019050610d246000830185610b93565b610d316020830184610d00565b9392505050565b60006020820190508181036000830152610d5181610ba2565b9050919050565b60006020820190508181036000830152610d7181610bc5565b9050919050565b60006020820190508181036000830152610d9181610be8565b9050919050565b60006020820190508181036000830152610db181610c0b565b9050919050565b60006020820190508181036000830152610dd181610c2e565b9050919050565b60006020820190508181036000830152610df181610c51565b9050919050565b60006020820190508181036000830152610e1181610c74565b9050919050565b60006020820190508181036000830152610e3181610c97565b9050919050565b60006020820190508181036000830152610e5181610cba565b9050919050565b60006020820190508181036000830152610e7181610cdd565b9050919050565b600082825260208201905092915050565b6000610e9482610fdc565b9150610e9f83610fdc565b9250827fffffffffffffffffffffffffffffffffffffffffffffffffffffffffffffffff03821115610ed457610ed361102f565b5b828201905092915050565b6000610eea82610fdc565b9150610ef583610fdc565b925082610f0557610f0461105e565b5b828204905092915050565b6000610f1b82610fdc565b9150610f2683610fdc565b9250817fffffffffffffffffffffffffffffffffffffffffffffffffffffffffffffffff0483118215151615610f5f57610f5e61102f565b5b828202905092915050565b6000610f7582610fdc565b9150610f8083610fdc565b925082821015610f9357610f9261102f565b5b828203905092915050565b6000610fa982610fbc565b9050919050565b60008115159050919050565b600073ffffffffffffffffffffffffffffffffffffffff82169050919050565b6000819050919050565b6000610ff182610fdc565b91507fffffffffffffffffffffffffffffffffffffffffffffffffffffffffffffffff8214156110245761102361102f565b5b600182019050919050565b7f4e487b7100000000000000000000000000000000000000000000000000000000600052601160045260246000fd5b7f4e487b7100000000000000000000000000000000000000000000000000000000600052601260045260246000fd5b7f4e487b7100000000000000000000000000000000000000000000000000000000600052602160045260246000fd5b7f4e487b7100000000000000000000000000000000000000000000000000000000600052603260045260246000fd5b600080fd5b600080fd5b600080fd5b600080fd5b600080fd5b7f496e76616c69642062656e656669636961727920616464726573730000000000600082015250565b7f4e6f207374616b65686f6c6465722063617465676f727920666f756e6420666f60008201527f7220746869732063616c6c657200000000000000000000000000000000000000602082015250565b7f52656c6561736520706572696f64206d75737420626520696e2074686520667560008201527f7475726500000000000000000000000000000000000000000000000000000000602082015250565b7f546f6b656e207472616e73666572206661696c65640000000000000000000000600082015250565b7f4f6e6c792077686974656c6973746564206164647265737365732063616e207060008201527f6572666f726d2074686973207472616e73616374696f6e000000000000000000602082015250565b7f4e756d626572206f6620696e7374616c6c6d656e7473206d757374206265206760008201527f726561746572207468616e207a65726f00000000000000000000000000000000602082015250565b7f4e6f2076657374696e67207363686564756c6520666f756e6420666f7220746860008201527f69732063616c6c65720000000000000000000000000000000000000000000000602082015250565b7f4e6f20746f6b656e7320617661696c61626c6520666f722072656c6561736500600082015250565b7f4f6e6c79207468652061646d696e2063616e20706572666f726d20746869732060008201527f7472616e73616374696f6e000000000000000000000000000000000000000000602082015250565b7f546f6b656e73206d7573742062652067726561746572207468616e207a65726f600082015250565b61138b81610f9e565b811461139657600080fd5b50565b6113a281610fb0565b81146113ad57600080fd5b50565b600381106113bd57600080fd5b50565b6113c981610fdc565b81146113d457600080fd5b5056fea2646970667358221220642f6e41e488487261695cf38a704c4e74caaf52cce2cbb1bd6ebb76266b0eec64736f6c63430008070033",
  "linkReferences": {},
  "deployedLinkReferences": {}
}