{
  "_format": "hh-sol-artifact-1",
  "contractName": "CustomToken",
  "sourceName": "contracts/CustomToken.sol",
  "abi": [
    {
      "inputs": [],
      "stateMutability": "nonpayable",
      "type": "constructor"
    },
    {
      "anonymous": false,
      "inputs": [
        {
          "indexed": true,
          "internalType": "address",
          "name": "owner",
          "type": "address"
        },
        {
          "indexed": true,
          "internalType": "address",
          "name": "spender",
          "type": "address"
        },
        {
          "indexed": false,
          "internalType": "uint256",
          "name": "value",
          "type": "uint256"
        }
      ],
      "name": "Approval",
      "type": "event"
    },
    {
      "anonymous": false,
      "inputs": [
        {
          "indexed": true,
          "internalType": "address",
          "name": "from",
          "type": "address"
        },
        {
          "indexed": true,
          "internalType": "address",
          "name": "to",
          "type": "address"
        },
        {
          "indexed": false,
          "internalType": "uint256",
          "name": "value",
          "type": "uint256"
        }
      ],
      "name": "Transfer",
      "type": "event"
    },
    {
      "inputs": [
        {
          "internalType": "address",
          "name": "owner",
          "type": "address"
        },
        {
          "internalType": "address",
          "name": "spender",
          "type": "address"
        }
      ],
      "name": "allowance",
      "outputs": [
        {
          "internalType": "uint256",
          "name": "",
          "type": "uint256"
        }
      ],
      "stateMutability": "view",
      "type": "function"
    },
    {
      "inputs": [
        {
          "internalType": "address",
          "name": "spender",
          "type": "address"
        },
        {
          "internalType": "uint256",
          "name": "amount",
          "type": "uint256"
        }
      ],
      "name": "approve",
      "outputs": [
        {
          "internalType": "bool",
          "name": "",
          "type": "bool"
        }
      ],
      "stateMutability": "nonpayable",
      "type": "function"
    },
    {
      "inputs": [
        {
          "internalType": "address",
          "name": "account",
          "type": "address"
        }
      ],
      "name": "balanceOf",
      "outputs": [
        {
          "internalType": "uint256",
          "name": "",
          "type": "uint256"
        }
      ],
      "stateMutability": "view",
      "type": "function"
    },
    {
      "inputs": [],
      "name": "decimals",
      "outputs": [
        {
          "internalType": "uint8",
          "name": "",
          "type": "uint8"
        }
      ],
      "stateMutability": "view",
      "type": "function"
    },
    {
      "inputs": [
        {
          "internalType": "address",
          "name": "spender",
          "type": "address"
        },
        {
          "internalType": "uint256",
          "name": "subtractedValue",
          "type": "uint256"
        }
      ],
      "name": "decreaseAllowance",
      "outputs": [
        {
          "internalType": "bool",
          "name": "",
          "type": "bool"
        }
      ],
      "stateMutability": "nonpayable",
      "type": "function"
    },
    {
      "inputs": [
        {
          "internalType": "address",
          "name": "spender",
          "type": "address"
        },
        {
          "internalType": "uint256",
          "name": "addedValue",
          "type": "uint256"
        }
      ],
      "name": "increaseAllowance",
      "outputs": [
        {
          "internalType": "bool",
          "name": "",
          "type": "bool"
        }
      ],
      "stateMutability": "nonpayable",
      "type": "function"
    },
    {
      "inputs": [
        {
          "internalType": "string",
          "name": "customName",
          "type": "string"
        },
        {
          "internalType": "string",
          "name": "customSymbol",
          "type": "string"
        },
        {
          "internalType": "uint256",
          "name": "totalSupply",
          "type": "uint256"
        }
      ],
      "name": "mintCustomToken",
      "outputs": [],
      "stateMutability": "nonpayable",
      "type": "function"
    },
    {
      "inputs": [],
      "name": "name",
      "outputs": [
        {
          "internalType": "string",
          "name": "",
          "type": "string"
        }
      ],
      "stateMutability": "view",
      "type": "function"
    },
    {
      "inputs": [],
      "name": "symbol",
      "outputs": [
        {
          "internalType": "string",
          "name": "",
          "type": "string"
        }
      ],
      "stateMutability": "view",
      "type": "function"
    },
    {
      "inputs": [],
      "name": "totalSupply",
      "outputs": [
        {
          "internalType": "uint256",
          "name": "",
          "type": "uint256"
        }
      ],
      "stateMutability": "view",
      "type": "function"
    },
    {
      "inputs": [
        {
          "internalType": "address",
          "name": "to",
          "type": "address"
        },
        {
          "internalType": "uint256",
          "name": "amount",
          "type": "uint256"
        }
      ],
      "name": "transfer",
      "outputs": [
        {
          "internalType": "bool",
          "name": "",
          "type": "bool"
        }
      ],
      "stateMutability": "nonpayable",
      "type": "function"
    },
    {
      "inputs": [
        {
          "internalType": "address",
          "name": "from",
          "type": "address"
        },
        {
          "internalType": "address",
          "name": "to",
          "type": "address"
        },
        {
          "internalType": "uint256",
          "name": "amount",
          "type": "uint256"
        }
      ],
      "name": "transferFrom",
      "outputs": [
        {
          "internalType": "bool",
          "name": "",
          "type": "bool"
        }
      ],
      "stateMutability": "nonpayable",
      "type": "function"
    }
  ],
  "bytecode": "0x60806040523480156200001157600080fd5b506040518060400160405280600c81526020017f436f6d70616e79546f6b656e00000000000000000000000000000000000000008152506040518060400160405280600381526020017f43544b00000000000000000000000000000000000000000000000000000000008152508160039080519060200190620000969291906200024c565b508060049080519060200190620000af9291906200024c565b505050620000ce3369d3c21bcecceda1000000620000d460201b60201c565b620004a8565b600073ffffffffffffffffffffffffffffffffffffffff168273ffffffffffffffffffffffffffffffffffffffff16141562000147576040517f08c379a00000000000000000000000000000000000000000000000000000000081526004016200013e9062000334565b60405180910390fd5b6200015b600083836200024260201b60201c565b80600260008282546200016f919062000384565b92505081905550806000808473ffffffffffffffffffffffffffffffffffffffff1673ffffffffffffffffffffffffffffffffffffffff168152602001908152602001600020600082825401925050819055508173ffffffffffffffffffffffffffffffffffffffff16600073ffffffffffffffffffffffffffffffffffffffff167fddf252ad1be2c89b69c2b068fc378daa952ba7f163c4a11628f55a4df523b3ef8360405162000222919062000356565b60405180910390a36200023e600083836200024760201b60201c565b5050565b505050565b505050565b8280546200025a90620003eb565b90600052602060002090601f0160209004810192826200027e5760008555620002ca565b82601f106200029957805160ff1916838001178555620002ca565b82800160010185558215620002ca579182015b82811115620002c9578251825591602001919060010190620002ac565b5b509050620002d99190620002dd565b5090565b5b80821115620002f8576000816000905550600101620002de565b5090565b60006200030b601f8362000373565b915062000318826200047f565b602082019050919050565b6200032e81620003e1565b82525050565b600060208201905081810360008301526200034f81620002fc565b9050919050565b60006020820190506200036d600083018462000323565b92915050565b600082825260208201905092915050565b60006200039182620003e1565b91506200039e83620003e1565b9250827fffffffffffffffffffffffffffffffffffffffffffffffffffffffffffffffff03821115620003d657620003d562000421565b5b828201905092915050565b6000819050919050565b600060028204905060018216806200040457607f821691505b602082108114156200041b576200041a62000450565b5b50919050565b7f4e487b7100000000000000000000000000000000000000000000000000000000600052601160045260246000fd5b7f4e487b7100000000000000000000000000000000000000000000000000000000600052602260045260246000fd5b7f45524332303a206d696e7420746f20746865207a65726f206164647265737300600082015250565b6116f880620004b86000396000f3fe608060405234801561001057600080fd5b50600436106100b45760003560e01c806370a082311161007157806370a08231146101a357806395d89b41146101d357806397b7b388146101f1578063a457c2d71461020d578063a9059cbb1461023d578063dd62ed3e1461026d576100b4565b806306fdde03146100b9578063095ea7b3146100d757806318160ddd1461010757806323b872dd14610125578063313ce567146101555780633950935114610173575b600080fd5b6100c161029d565b6040516100ce919061109c565b60405180910390f35b6100f160048036038101906100ec9190610e38565b61032f565b6040516100fe9190611081565b60405180910390f35b61010f610352565b60405161011c91906111be565b60405180910390f35b61013f600480360381019061013a9190610de5565b61035c565b60405161014c9190611081565b60405180910390f35b61015d61038b565b60405161016a91906111d9565b60405180910390f35b61018d60048036038101906101889190610e38565b610394565b60405161019a9190611081565b60405180910390f35b6101bd60048036038101906101b89190610d78565b6103cb565b6040516101ca91906111be565b60405180910390f35b6101db610413565b6040516101e8919061109c565b60405180910390f35b61020b60048036038101906102069190610e78565b6104a5565b005b61022760048036038101906102229190610e38565b6104e2565b6040516102349190611081565b60405180910390f35b61025760048036038101906102529190610e38565b610559565b6040516102649190611081565b60405180910390f35b61028760048036038101906102829190610da5565b61057c565b60405161029491906111be565b60405180910390f35b6060600580546102ac90611353565b80601f01602080910402602001604051908101604052809291908181526020018280546102d890611353565b80156103255780601f106102fa57610100808354040283529160200191610325565b820191906000526020600020905b81548152906001019060200180831161030857829003601f168201915b5050505050905090565b60008061033a610603565b905061034781858561060b565b600191505092915050565b6000600254905090565b600080610367610603565b90506103748582856107d6565b61037f858585610862565b60019150509392505050565b60006012905090565b60008061039f610603565b90506103c08185856103b1858961057c565b6103bb9190611266565b61060b565b600191505092915050565b60008060008373ffffffffffffffffffffffffffffffffffffffff1673ffffffffffffffffffffffffffffffffffffffff168152602001908152602001600020549050919050565b60606006805461042290611353565b80601f016020809104026020016040519081016040528092919081815260200182805461044e90611353565b801561049b5780601f106104705761010080835404028352916020019161049b565b820191906000526020600020905b81548152906001019060200180831161047e57829003601f168201915b5050505050905090565b6104af3382610ada565b82600590805190602001906104c5929190610c3b565b5081600690805190602001906104dc929190610c3b565b50505050565b6000806104ed610603565b905060006104fb828661057c565b905083811015610540576040517f08c379a00000000000000000000000000000000000000000000000000000000081526004016105379061117e565b60405180910390fd5b61054d828686840361060b565b60019250505092915050565b600080610564610603565b9050610571818585610862565b600191505092915050565b6000600160008473ffffffffffffffffffffffffffffffffffffffff1673ffffffffffffffffffffffffffffffffffffffff16815260200190815260200160002060008373ffffffffffffffffffffffffffffffffffffffff1673ffffffffffffffffffffffffffffffffffffffff16815260200190815260200160002054905092915050565b600033905090565b600073ffffffffffffffffffffffffffffffffffffffff168373ffffffffffffffffffffffffffffffffffffffff16141561067b576040517f08c379a00000000000000000000000000000000000000000000000000000000081526004016106729061115e565b60405180910390fd5b600073ffffffffffffffffffffffffffffffffffffffff168273ffffffffffffffffffffffffffffffffffffffff1614156106eb576040517f08c379a00000000000000000000000000000000000000000000000000000000081526004016106e2906110de565b60405180910390fd5b80600160008573ffffffffffffffffffffffffffffffffffffffff1673ffffffffffffffffffffffffffffffffffffffff16815260200190815260200160002060008473ffffffffffffffffffffffffffffffffffffffff1673ffffffffffffffffffffffffffffffffffffffff168152602001908152602001600020819055508173ffffffffffffffffffffffffffffffffffffffff168373ffffffffffffffffffffffffffffffffffffffff167f8c5be1e5ebec7d5bd14f71427d1e84f3dd0314c0f7b2291e5b200ac8c7c3b925836040516107c991906111be565b60405180910390a3505050565b60006107e2848461057c565b90507fffffffffffffffffffffffffffffffffffffffffffffffffffffffffffffffff811461085c578181101561084e576040517f08c379a0000000000000000000000000000000000000000000000000000000008152600401610845906110fe565b60405180910390fd5b61085b848484840361060b565b5b50505050565b600073ffffffffffffffffffffffffffffffffffffffff168373ffffffffffffffffffffffffffffffffffffffff1614156108d2576040517f08c379a00000000000000000000000000000000000000000000000000000000081526004016108c99061113e565b60405180910390fd5b600073ffffffffffffffffffffffffffffffffffffffff168273ffffffffffffffffffffffffffffffffffffffff161415610942576040517f08c379a0000000000000000000000000000000000000000000000000000000008152600401610939906110be565b60405180910390fd5b61094d838383610c31565b60008060008573ffffffffffffffffffffffffffffffffffffffff1673ffffffffffffffffffffffffffffffffffffffff168152602001908152602001600020549050818110156109d3576040517f08c379a00000000000000000000000000000000000000000000000000000000081526004016109ca9061111e565b60405180910390fd5b8181036000808673ffffffffffffffffffffffffffffffffffffffff1673ffffffffffffffffffffffffffffffffffffffff16815260200190815260200160002081905550816000808573ffffffffffffffffffffffffffffffffffffffff1673ffffffffffffffffffffffffffffffffffffffff168152602001908152602001600020600082825401925050819055508273ffffffffffffffffffffffffffffffffffffffff168473ffffffffffffffffffffffffffffffffffffffff167fddf252ad1be2c89b69c2b068fc378daa952ba7f163c4a11628f55a4df523b3ef84604051610ac191906111be565b60405180910390a3610ad4848484610c36565b50505050565b600073ffffffffffffffffffffffffffffffffffffffff168273ffffffffffffffffffffffffffffffffffffffff161415610b4a576040517f08c379a0000000000000000000000000000000000000000000000000000000008152600401610b419061119e565b60405180910390fd5b610b5660008383610c31565b8060026000828254610b689190611266565b92505081905550806000808473ffffffffffffffffffffffffffffffffffffffff1673ffffffffffffffffffffffffffffffffffffffff168152602001908152602001600020600082825401925050819055508173ffffffffffffffffffffffffffffffffffffffff16600073ffffffffffffffffffffffffffffffffffffffff167fddf252ad1be2c89b69c2b068fc378daa952ba7f163c4a11628f55a4df523b3ef83604051610c1991906111be565b60405180910390a3610c2d60008383610c36565b5050565b505050565b505050565b828054610c4790611353565b90600052602060002090601f016020900481019282610c695760008555610cb0565b82601f10610c8257805160ff1916838001178555610cb0565b82800160010185558215610cb0579182015b82811115610caf578251825591602001919060010190610c94565b5b509050610cbd9190610cc1565b5090565b5b80821115610cda576000816000905550600101610cc2565b5090565b6000610cf1610cec84611219565b6111f4565b905082815260208101848484011115610d0d57610d0c611448565b5b610d18848285611311565b509392505050565b600081359050610d2f81611694565b92915050565b600082601f830112610d4a57610d49611443565b5b8135610d5a848260208601610cde565b91505092915050565b600081359050610d72816116ab565b92915050565b600060208284031215610d8e57610d8d611452565b5b6000610d9c84828501610d20565b91505092915050565b60008060408385031215610dbc57610dbb611452565b5b6000610dca85828601610d20565b9250506020610ddb85828601610d20565b9150509250929050565b600080600060608486031215610dfe57610dfd611452565b5b6000610e0c86828701610d20565b9350506020610e1d86828701610d20565b9250506040610e2e86828701610d63565b9150509250925092565b60008060408385031215610e4f57610e4e611452565b5b6000610e5d85828601610d20565b9250506020610e6e85828601610d63565b9150509250929050565b600080600060608486031215610e9157610e90611452565b5b600084013567ffffffffffffffff811115610eaf57610eae61144d565b5b610ebb86828701610d35565b935050602084013567ffffffffffffffff811115610edc57610edb61144d565b5b610ee886828701610d35565b9250506040610ef986828701610d63565b9150509250925092565b610f0c816112ce565b82525050565b6000610f1d8261124a565b610f278185611255565b9350610f37818560208601611320565b610f4081611457565b840191505092915050565b6000610f58602383611255565b9150610f6382611468565b604082019050919050565b6000610f7b602283611255565b9150610f86826114b7565b604082019050919050565b6000610f9e601d83611255565b9150610fa982611506565b602082019050919050565b6000610fc1602683611255565b9150610fcc8261152f565b604082019050919050565b6000610fe4602583611255565b9150610fef8261157e565b604082019050919050565b6000611007602483611255565b9150611012826115cd565b604082019050919050565b600061102a602583611255565b91506110358261161c565b604082019050919050565b600061104d601f83611255565b91506110588261166b565b602082019050919050565b61106c816112fa565b82525050565b61107b81611304565b82525050565b60006020820190506110966000830184610f03565b92915050565b600060208201905081810360008301526110b68184610f12565b905092915050565b600060208201905081810360008301526110d781610f4b565b9050919050565b600060208201905081810360008301526110f781610f6e565b9050919050565b6000602082019050818103600083015261111781610f91565b9050919050565b6000602082019050818103600083015261113781610fb4565b9050919050565b6000602082019050818103600083015261115781610fd7565b9050919050565b6000602082019050818103600083015261117781610ffa565b9050919050565b600060208201905081810360008301526111978161101d565b9050919050565b600060208201905081810360008301526111b781611040565b9050919050565b60006020820190506111d36000830184611063565b92915050565b60006020820190506111ee6000830184611072565b92915050565b60006111fe61120f565b905061120a8282611385565b919050565b6000604051905090565b600067ffffffffffffffff82111561123457611233611414565b5b61123d82611457565b9050602081019050919050565b600081519050919050565b600082825260208201905092915050565b6000611271826112fa565b915061127c836112fa565b9250827fffffffffffffffffffffffffffffffffffffffffffffffffffffffffffffffff038211156112b1576112b06113b6565b5b828201905092915050565b60006112c7826112da565b9050919050565b60008115159050919050565b600073ffffffffffffffffffffffffffffffffffffffff82169050919050565b6000819050919050565b600060ff82169050919050565b82818337600083830152505050565b60005b8381101561133e578082015181840152602081019050611323565b8381111561134d576000848401525b50505050565b6000600282049050600182168061136b57607f821691505b6020821081141561137f5761137e6113e5565b5b50919050565b61138e82611457565b810181811067ffffffffffffffff821117156113ad576113ac611414565b5b80604052505050565b7f4e487b7100000000000000000000000000000000000000000000000000000000600052601160045260246000fd5b7f4e487b7100000000000000000000000000000000000000000000000000000000600052602260045260246000fd5b7f4e487b7100000000000000000000000000000000000000000000000000000000600052604160045260246000fd5b600080fd5b600080fd5b600080fd5b600080fd5b6000601f19601f8301169050919050565b7f45524332303a207472616e7366657220746f20746865207a65726f206164647260008201527f6573730000000000000000000000000000000000000000000000000000000000602082015250565b7f45524332303a20617070726f766520746f20746865207a65726f20616464726560008201527f7373000000000000000000000000000000000000000000000000000000000000602082015250565b7f45524332303a20696e73756666696369656e7420616c6c6f77616e6365000000600082015250565b7f45524332303a207472616e7366657220616d6f756e742065786365656473206260008201527f616c616e63650000000000000000000000000000000000000000000000000000602082015250565b7f45524332303a207472616e736665722066726f6d20746865207a65726f20616460008201527f6472657373000000000000000000000000000000000000000000000000000000602082015250565b7f45524332303a20617070726f76652066726f6d20746865207a65726f2061646460008201527f7265737300000000000000000000000000000000000000000000000000000000602082015250565b7f45524332303a2064656372656173656420616c6c6f77616e63652062656c6f7760008201527f207a65726f000000000000000000000000000000000000000000000000000000602082015250565b7f45524332303a206d696e7420746f20746865207a65726f206164647265737300600082015250565b61169d816112bc565b81146116a857600080fd5b50565b6116b4816112fa565b81146116bf57600080fd5b5056fea2646970667358221220cc1c8fb8b2236b6e1c89ea8f0c96432841b4f209aeeb4dc17835aefeb30b8c3464736f6c63430008070033",
  "linkReferences": {},
  "deployedLinkReferences": {}
}