{
  "_format": "hh-sol-artifact-1",
  "contractName": "VestingContract",
  "sourceName": "contracts/VestingContract.sol",
  "abi": [
    {
      "inputs": [
        {
          "internalType": "address",
          "name": "_customTokenAddress",
          "type": "address"
        }
      ],
      "stateMutability": "nonpayable",
      "type": "constructor"
    },
    {
      "anonymous": false,
      "inputs": [
        {
          "indexed": true,
          "internalType": "address",
          "name": "beneficiary",
          "type": "address"
        },
        {
          "indexed": true,
          "internalType": "string",
          "name": "category",
          "type": "string"
        },
        {
          "indexed": false,
          "internalType": "uint256",
          "name": "amount",
          "type": "uint256"
        },
        {
          "indexed": false,
          "internalType": "uint256",
          "name": "vestingPeriod",
          "type": "uint256"
        }
      ],
      "name": "VestingScheduleCreated",
      "type": "event"
    },
    {
      "inputs": [
        {
          "internalType": "string",
          "name": "category",
          "type": "string"
        }
      ],
      "name": "addStakeholderCategory",
      "outputs": [],
      "stateMutability": "nonpayable",
      "type": "function"
    },
    {
      "inputs": [
        {
          "internalType": "string",
          "name": "category",
          "type": "string"
        }
      ],
      "name": "claimVestedTokens",
      "outputs": [],
      "stateMutability": "nonpayable",
      "type": "function"
    },
    {
      "inputs": [
        {
          "internalType": "address",
          "name": "beneficiary",
          "type": "address"
        },
        {
          "internalType": "uint256",
          "name": "amount",
          "type": "uint256"
        },
        {
          "internalType": "uint256",
          "name": "vestingPeriod",
          "type": "uint256"
        },
        {
          "internalType": "string",
          "name": "category",
          "type": "string"
        }
      ],
      "name": "createVestingSchedule",
      "outputs": [],
      "stateMutability": "nonpayable",
      "type": "function"
    }
  ],
  "bytecode": "0x608060405234801561001057600080fd5b5060405162001051380380620010518339818101604052810190610034919061008f565b806000806101000a81548173ffffffffffffffffffffffffffffffffffffffff021916908373ffffffffffffffffffffffffffffffffffffffff1602179055505061010a565b600081519050610089816100f3565b92915050565b6000602082840312156100a5576100a46100ee565b5b60006100b38482850161007a565b91505092915050565b60006100c7826100ce565b9050919050565b600073ffffffffffffffffffffffffffffffffffffffff82169050919050565b600080fd5b6100fc816100bc565b811461010757600080fd5b50565b610f37806200011a6000396000f3fe608060405234801561001057600080fd5b50600436106100415760003560e01c806314274fef14610046578063ad831db014610062578063d9b45cb11461007e575b600080fd5b610060600480360381019061005b9190610832565b61009a565b005b61007c60048036038101906100779190610832565b61029a565b005b61009860048036038101906100939190610782565b6103ce565b005b6002816040516100aa9190610979565b908152602001604051809103902060009054906101000a900460ff16610105576040517f08c379a00000000000000000000000000000000000000000000000000000000081526004016100fc906109f9565b60405180910390fd5b6000600160003373ffffffffffffffffffffffffffffffffffffffff1673ffffffffffffffffffffffffffffffffffffffff168152602001908152602001600020826040516101549190610979565b9081526020016040518091039020905060005b81805490508110156102955760006101c783838154811061018b5761018a610d20565b5b9060005260206000209060030201604051806060016040529081600082015481526020016001820154815260200160028201548152505061067e565b905060008111156102815760008054906101000a900473ffffffffffffffffffffffffffffffffffffffff1673ffffffffffffffffffffffffffffffffffffffff1663a9059cbb33836040518363ffffffff1660e01b815260040161022d929190610990565b602060405180830381600087803b15801561024757600080fd5b505af115801561025b573d6000803e3d6000fd5b505050506040513d601f19601f8201168201806040525081019061027f9190610805565b505b50808061028d90610c79565b915050610167565b505050565b60008054906101000a900473ffffffffffffffffffffffffffffffffffffffff1673ffffffffffffffffffffffffffffffffffffffff163373ffffffffffffffffffffffffffffffffffffffff1614610328576040517f08c379a000000000000000000000000000000000000000000000000000000000815260040161031f906109d9565b60405180910390fd5b6002816040516103389190610979565b908152602001604051809103902060009054906101000a900460ff1615610394576040517f08c379a000000000000000000000000000000000000000000000000000000000815260040161038b90610a39565b60405180910390fd5b60016002826040516103a69190610979565b908152602001604051809103902060006101000a81548160ff02191690831515021790555050565b60008054906101000a900473ffffffffffffffffffffffffffffffffffffffff1673ffffffffffffffffffffffffffffffffffffffff163373ffffffffffffffffffffffffffffffffffffffff161461045c576040517f08c379a0000000000000000000000000000000000000000000000000000000008152600401610453906109d9565b60405180910390fd5b6000831161049f576040517f08c379a0000000000000000000000000000000000000000000000000000000008152600401610496906109b9565b60405180910390fd5b600082116104e2576040517f08c379a00000000000000000000000000000000000000000000000000000000081526004016104d990610a19565b60405180910390fd5b6002816040516104f29190610979565b908152602001604051809103902060009054906101000a900460ff1661054d576040517f08c379a0000000000000000000000000000000000000000000000000000000008152600401610544906109f9565b60405180910390fd5b60006040518060600160405280858152602001848152602001428152509050600160008673ffffffffffffffffffffffffffffffffffffffff1673ffffffffffffffffffffffffffffffffffffffff168152602001908152602001600020826040516105b99190610979565b908152602001604051809103902081908060018154018082558091505060019003906000526020600020906003020160009091909190915060008201518160000155602082015181600101556040820151816002015550508160405161061f9190610979565b60405180910390208573ffffffffffffffffffffffffffffffffffffffff167f22502bffa6a91546da659122de338d2814bb9f804be84ea706cbeb00cf595e4e868660405161066f929190610a59565b60405180910390a35050505050565b6000808260400151426106919190610b8a565b9050826020015181106106ab5782600001519150506106ce565b82602001518184600001516106c09190610b30565b6106ca9190610aff565b9150505b919050565b60006106e66106e184610aa7565b610a82565b90508281526020810184848401111561070257610701610d83565b5b61070d848285610c06565b509392505050565b60008135905061072481610ebc565b92915050565b60008151905061073981610ed3565b92915050565b600082601f83011261075457610753610d7e565b5b81356107648482602086016106d3565b91505092915050565b60008135905061077c81610eea565b92915050565b6000806000806080858703121561079c5761079b610d8d565b5b60006107aa87828801610715565b94505060206107bb8782880161076d565b93505060406107cc8782880161076d565b925050606085013567ffffffffffffffff8111156107ed576107ec610d88565b5b6107f98782880161073f565b91505092959194509250565b60006020828403121561081b5761081a610d8d565b5b60006108298482850161072a565b91505092915050565b60006020828403121561084857610847610d8d565b5b600082013567ffffffffffffffff81111561086657610865610d88565b5b6108728482850161073f565b91505092915050565b61088481610bbe565b82525050565b600061089582610ad8565b61089f8185610af4565b93506108af818560208601610c15565b80840191505092915050565b60006108c8602083610ae3565b91506108d382610da3565b602082019050919050565b60006108eb602283610ae3565b91506108f682610dcc565b604082019050919050565b600061090e601083610ae3565b915061091982610e1b565b602082019050919050565b6000610931602883610ae3565b915061093c82610e44565b604082019050919050565b6000610954601783610ae3565b915061095f82610e93565b602082019050919050565b61097381610bfc565b82525050565b6000610985828461088a565b915081905092915050565b60006040820190506109a5600083018561087b565b6109b2602083018461096a565b9392505050565b600060208201905081810360008301526109d2816108bb565b9050919050565b600060208201905081810360008301526109f2816108de565b9050919050565b60006020820190508181036000830152610a1281610901565b9050919050565b60006020820190508181036000830152610a3281610924565b9050919050565b60006020820190508181036000830152610a5281610947565b9050919050565b6000604082019050610a6e600083018561096a565b610a7b602083018461096a565b9392505050565b6000610a8c610a9d565b9050610a988282610c48565b919050565b6000604051905090565b600067ffffffffffffffff821115610ac257610ac1610d4f565b5b610acb82610d92565b9050602081019050919050565b600081519050919050565b600082825260208201905092915050565b600081905092915050565b6000610b0a82610bfc565b9150610b1583610bfc565b925082610b2557610b24610cf1565b5b828204905092915050565b6000610b3b82610bfc565b9150610b4683610bfc565b9250817fffffffffffffffffffffffffffffffffffffffffffffffffffffffffffffffff0483118215151615610b7f57610b7e610cc2565b5b828202905092915050565b6000610b9582610bfc565b9150610ba083610bfc565b925082821015610bb357610bb2610cc2565b5b828203905092915050565b6000610bc982610bdc565b9050919050565b60008115159050919050565b600073ffffffffffffffffffffffffffffffffffffffff82169050919050565b6000819050919050565b82818337600083830152505050565b60005b83811015610c33578082015181840152602081019050610c18565b83811115610c42576000848401525b50505050565b610c5182610d92565b810181811067ffffffffffffffff82111715610c7057610c6f610d4f565b5b80604052505050565b6000610c8482610bfc565b91507fffffffffffffffffffffffffffffffffffffffffffffffffffffffffffffffff821415610cb757610cb6610cc2565b5b600182019050919050565b7f4e487b7100000000000000000000000000000000000000000000000000000000600052601160045260246000fd5b7f4e487b7100000000000000000000000000000000000000000000000000000000600052601260045260246000fd5b7f4e487b7100000000000000000000000000000000000000000000000000000000600052603260045260246000fd5b7f4e487b7100000000000000000000000000000000000000000000000000000000600052604160045260246000fd5b600080fd5b600080fd5b600080fd5b600080fd5b6000601f19601f8301169050919050565b7f416d6f756e74206d7573742062652067726561746572207468616e207a65726f600082015250565b7f4f6e6c792061646d696e2063616e20706572666f726d2074686973206163746960008201527f6f6e000000000000000000000000000000000000000000000000000000000000602082015250565b7f496e76616c69642063617465676f727900000000000000000000000000000000600082015250565b7f56657374696e6720706572696f64206d7573742062652067726561746572207460008201527f68616e207a65726f000000000000000000000000000000000000000000000000602082015250565b7f43617465676f727920616c726561647920657869737473000000000000000000600082015250565b610ec581610bbe565b8114610ed057600080fd5b50565b610edc81610bd0565b8114610ee757600080fd5b50565b610ef381610bfc565b8114610efe57600080fd5b5056fea264697066735822122077705dd2b2be218608cb9e311fd645f8b8ad4de5e353b9318b2c19977eff07a964736f6c63430008070033",
  "linkReferences": {},
  "deployedLinkReferences": {}
}